{
  "contractName": "FlightSuretyData",
  "abi": [
    {
      "inputs": [
        {
          "name": "firstAirline",
          "type": "address"
        }
      ],
      "payable": false,
      "stateMutability": "nonpayable",
      "type": "constructor"
    },
    {
      "payable": true,
      "stateMutability": "payable",
      "type": "fallback"
    },
    {
      "constant": true,
      "inputs": [],
      "name": "isOperational",
      "outputs": [
        {
          "name": "",
          "type": "bool"
        }
      ],
      "payable": false,
      "stateMutability": "view",
      "type": "function"
    },
    {
      "constant": false,
      "inputs": [
        {
          "name": "mode",
          "type": "bool"
        }
      ],
      "name": "setOperatingStatus",
      "outputs": [],
      "payable": false,
      "stateMutability": "nonpayable",
      "type": "function"
    },
    {
      "constant": false,
      "inputs": [
        {
          "name": "contractAddress",
          "type": "address"
        }
      ],
      "name": "authorizeCaller",
      "outputs": [],
      "payable": false,
      "stateMutability": "nonpayable",
      "type": "function"
    },
    {
      "constant": true,
      "inputs": [
        {
          "name": "sender",
          "type": "address"
        },
        {
          "name": "airline",
          "type": "address"
        },
        {
          "name": "flightCode",
          "type": "string"
        },
        {
          "name": "timestamp",
          "type": "uint256"
        }
      ],
      "name": "isFlightInsured",
      "outputs": [
        {
          "name": "",
          "type": "bool"
        }
      ],
      "payable": false,
      "stateMutability": "view",
      "type": "function"
    },
    {
      "constant": false,
      "inputs": [
        {
          "name": "InAirline",
          "type": "address"
        },
        {
          "name": "N_airline",
          "type": "address"
        }
      ],
      "name": "registerAirline",
      "outputs": [
        {
          "name": "status",
          "type": "bool"
        }
      ],
      "payable": false,
      "stateMutability": "nonpayable",
      "type": "function"
    },
    {
      "constant": false,
      "inputs": [
        {
          "name": "sender",
          "type": "address"
        },
        {
          "name": "airline",
          "type": "address"
        },
        {
          "name": "flightCode",
          "type": "string"
        },
        {
          "name": "timestamp",
          "type": "uint256"
        },
        {
          "name": "insuranceAmount",
          "type": "uint256"
        }
      ],
      "name": "buy",
      "outputs": [],
      "payable": false,
      "stateMutability": "nonpayable",
      "type": "function"
    },
    {
      "constant": false,
      "inputs": [
        {
          "name": "airline",
          "type": "address"
        },
        {
          "name": "flightCode",
          "type": "string"
        },
        {
          "name": "timestamp",
          "type": "uint256"
        }
      ],
      "name": "creditInsurees",
      "outputs": [],
      "payable": false,
      "stateMutability": "nonpayable",
      "type": "function"
    },
    {
      "constant": false,
      "inputs": [
        {
          "name": "sender",
          "type": "address"
        }
      ],
      "name": "pay",
      "outputs": [],
      "payable": false,
      "stateMutability": "nonpayable",
      "type": "function"
    },
    {
      "constant": false,
      "inputs": [
        {
          "name": "airlineAddress",
          "type": "address"
        }
      ],
      "name": "fund",
      "outputs": [],
      "payable": true,
      "stateMutability": "payable",
      "type": "function"
    }
  ],
  "bytecode": "0x60806040526001600060146101000a81548160ff0219169083151502179055506000600660006101000a81548160ff02191690831515021790555034801561004657600080fd5b50604051602080611d6383398101806040528101908080519060200190929190505050336000806101000a81548173ffffffffffffffffffffffffffffffffffffffff021916908373ffffffffffffffffffffffffffffffffffffffff1602179055506001600260008373ffffffffffffffffffffffffffffffffffffffff1673ffffffffffffffffffffffffffffffffffffffff16815260200190815260200160002060000160006101000a81548160ff0219169083151502179055506000600260008373ffffffffffffffffffffffffffffffffffffffff1673ffffffffffffffffffffffffffffffffffffffff16815260200190815260200160002060000160016101000a81548160ff02191690831515021790555050611bf48061016f6000396000f300608060405260043610610099576000357c0100000000000000000000000000000000000000000000000000000000900463ffffffff1680630c11dedd146100a4578063110466ed146100e757806323024408146101165780632a7474131461014c5780632c388d5d14610217578063c7ba50181461025a578063c8820a70146102d5578063cd905dff1461033a578063cf90cc4414610369575b6100a2336103f8565b005b3480156100b057600080fd5b506100e5600480360381019080803573ffffffffffffffffffffffffffffffffffffffff16906020019092919050505061060d565b005b3480156100f357600080fd5b5061011460048036038101908080351515906020019092919050505061098b565b005b61014a600480360381019080803573ffffffffffffffffffffffffffffffffffffffff1690602001909291905050506103f8565b005b34801561015857600080fd5b506101fd600480360381019080803573ffffffffffffffffffffffffffffffffffffffff169060200190929190803573ffffffffffffffffffffffffffffffffffffffff169060200190929190803590602001908201803590602001908080601f016020809104026020016040519081016040528093929190818152602001838380828437820191505050505050919291929080359060200190929190505050610a6c565b604051808215151515815260200191505060405180910390f35b34801561022357600080fd5b50610258600480360381019080803573ffffffffffffffffffffffffffffffffffffffff169060200190929190505050610ab4565b005b34801561026657600080fd5b506102bb600480360381019080803573ffffffffffffffffffffffffffffffffffffffff169060200190929190803573ffffffffffffffffffffffffffffffffffffffff169060200190929190505050610bbf565b604051808215151515815260200191505060405180910390f35b3480156102e157600080fd5b50610338600480360381019080803573ffffffffffffffffffffffffffffffffffffffff1690602001909291908035906020019082018035906020019190919293919293908035906020019092919050505061105c565b005b34801561034657600080fd5b5061034f6114aa565b604051808215151515815260200191505060405180910390f35b34801561037557600080fd5b506103f6600480360381019080803573ffffffffffffffffffffffffffffffffffffffff169060200190929190803573ffffffffffffffffffffffffffffffffffffffff16906020019092919080359060200190820180359060200191909192939192939080359060200190929190803590602001909291905050506114c0565b005b600060149054906101000a900460ff1615156104a2576040517f08c379a00000000000000000000000000000000000000000000000000000000081526004018080602001828103825260258152602001807f436f6e74726163742069732063757272656e746c79206e6f74206f706572617481526020017f696f6e616c00000000000000000000000000000000000000000000000000000081525060400191505060405180910390fd5b6000809054906101000a900473ffffffffffffffffffffffffffffffffffffffff1673ffffffffffffffffffffffffffffffffffffffff163373ffffffffffffffffffffffffffffffffffffffff16148061053b575060018060003373ffffffffffffffffffffffffffffffffffffffff1673ffffffffffffffffffffffffffffffffffffffff16815260200190815260200160002054145b15156105af576040517f08c379a00000000000000000000000000000000000000000000000000000000081526004018080602001828103825260168152602001807f43616c6c6572206e6f7420617574686f72697a6564210000000000000000000081525060200191505060405180910390fd5b6001600260008373ffffffffffffffffffffffffffffffffffffffff1673ffffffffffffffffffffffffffffffffffffffff16815260200190815260200160002060000160016101000a81548160ff02191690831515021790555050565b60008060149054906101000a900460ff1615156106b8576040517f08c379a00000000000000000000000000000000000000000000000000000000081526004018080602001828103825260258152602001807f436f6e74726163742069732063757272656e746c79206e6f74206f706572617481526020017f696f6e616c00000000000000000000000000000000000000000000000000000081525060400191505060405180910390fd5b6000809054906101000a900473ffffffffffffffffffffffffffffffffffffffff1673ffffffffffffffffffffffffffffffffffffffff163373ffffffffffffffffffffffffffffffffffffffff161480610751575060018060003373ffffffffffffffffffffffffffffffffffffffff1673ffffffffffffffffffffffffffffffffffffffff16815260200190815260200160002054145b15156107c5576040517f08c379a00000000000000000000000000000000000000000000000000000000081526004018080602001828103825260168152602001807f43616c6c6572206e6f7420617574686f72697a6564210000000000000000000081525060200191505060405180910390fd5b600360008373ffffffffffffffffffffffffffffffffffffffff1673ffffffffffffffffffffffffffffffffffffffff168152602001908152602001600020543073ffffffffffffffffffffffffffffffffffffffff1631101515156108b9576040517f08c379a00000000000000000000000000000000000000000000000000000000081526004018080602001828103825260248152602001807f4572726f723a205468657265206973206e6f2066756e647320696e20636f6e7481526020017f726163740000000000000000000000000000000000000000000000000000000081525060400191505060405180910390fd5b600360008373ffffffffffffffffffffffffffffffffffffffff1673ffffffffffffffffffffffffffffffffffffffff1681526020019081526020016000205490506000600360008473ffffffffffffffffffffffffffffffffffffffff1673ffffffffffffffffffffffffffffffffffffffff168152602001908152602001600020819055508173ffffffffffffffffffffffffffffffffffffffff166108fc829081150290604051600060405180830381858888f19350505050158015610986573d6000803e3d6000fd5b505050565b6000809054906101000a900473ffffffffffffffffffffffffffffffffffffffff1673ffffffffffffffffffffffffffffffffffffffff163373ffffffffffffffffffffffffffffffffffffffff16141515610a4f576040517f08c379a000000000000000000000000000000000000000000000000000000000815260040180806020018281038252601c8152602001807f43616c6c6572206973206e6f7420636f6e7472616374206f776e65720000000081525060200191505060405180910390fd5b80600060146101000a81548160ff02191690831515021790555050565b60008060046000610a7f888888886117fa565b6000191660001916815260200190815260200160002090508060000160009054906101000a900460ff16915050949350505050565b6000809054906101000a900473ffffffffffffffffffffffffffffffffffffffff1673ffffffffffffffffffffffffffffffffffffffff163373ffffffffffffffffffffffffffffffffffffffff16141515610b78576040517f08c379a000000000000000000000000000000000000000000000000000000000815260040180806020018281038252601c8152602001807f43616c6c6572206973206e6f7420636f6e7472616374206f776e65720000000081525060200191505060405180910390fd5b60018060008373ffffffffffffffffffffffffffffffffffffffff1673ffffffffffffffffffffffffffffffffffffffff1681526020019081526020016000208190555050565b60008060149054906101000a900460ff161515610c6a576040517f08c379a00000000000000000000000000000000000000000000000000000000081526004018080602001828103825260258152602001807f436f6e74726163742069732063757272656e746c79206e6f74206f706572617481526020017f696f6e616c00000000000000000000000000000000000000000000000000000081525060400191505060405180910390fd5b6000809054906101000a900473ffffffffffffffffffffffffffffffffffffffff1673ffffffffffffffffffffffffffffffffffffffff163373ffffffffffffffffffffffffffffffffffffffff161480610d03575060018060003373ffffffffffffffffffffffffffffffffffffffff1673ffffffffffffffffffffffffffffffffffffffff16815260200190815260200160002054145b1515610d77576040517f08c379a00000000000000000000000000000000000000000000000000000000081526004018080602001828103825260168152602001807f43616c6c6572206e6f7420617574686f72697a6564210000000000000000000081525060200191505060405180910390fd5b82600260008273ffffffffffffffffffffffffffffffffffffffff1673ffffffffffffffffffffffffffffffffffffffff16815260200190815260200160002060000160019054906101000a900460ff161515610e62576040517f08c379a00000000000000000000000000000000000000000000000000000000081526004018080602001828103825260358152602001807f4169726c696e652063616e6e6f7420706172746963697061746520696e20636f81526020017f6e7472616374206966206e6f742066756e6465642e000000000000000000000081525060400191505060405180910390fd5b600260008473ffffffffffffffffffffffffffffffffffffffff1673ffffffffffffffffffffffffffffffffffffffff16815260200190815260200160002060000160009054906101000a900460ff16151515610f4d576040517f08c379a00000000000000000000000000000000000000000000000000000000081526004018080602001828103825260258152602001807f4169726c696e652020686173206265656e20616c72656164792072656769737481526020017f657265642e00000000000000000000000000000000000000000000000000000081525060400191505060405180910390fd5b6001600260008573ffffffffffffffffffffffffffffffffffffffff1673ffffffffffffffffffffffffffffffffffffffff16815260200190815260200160002060000160006101000a81548160ff0219169083151502179055506000600260008573ffffffffffffffffffffffffffffffffffffffff1673ffffffffffffffffffffffffffffffffffffffff16815260200190815260200160002060000160016101000a81548160ff021916908315150217905550600260008473ffffffffffffffffffffffffffffffffffffffff1673ffffffffffffffffffffffffffffffffffffffff16815260200190815260200160002060000160009054906101000a900460ff1691505092915050565b60008060008060149054906101000a900460ff16151561110a576040517f08c379a00000000000000000000000000000000000000000000000000000000081526004018080602001828103825260258152602001807f436f6e74726163742069732063757272656e746c79206e6f74206f706572617481526020017f696f6e616c00000000000000000000000000000000000000000000000000000081525060400191505060405180910390fd5b6000809054906101000a900473ffffffffffffffffffffffffffffffffffffffff1673ffffffffffffffffffffffffffffffffffffffff163373ffffffffffffffffffffffffffffffffffffffff1614806111a3575060018060003373ffffffffffffffffffffffffffffffffffffffff1673ffffffffffffffffffffffffffffffffffffffff16815260200190815260200160002054145b1515611217576040517f08c379a00000000000000000000000000000000000000000000000000000000081526004018080602001828103825260168152602001807f43616c6c6572206e6f7420617574686f72697a6564210000000000000000000081525060200191505060405180910390fd5b6005600061125a60008a8a8a8080601f016020809104026020016040519081016040528093929190818152602001838380828437820191505050505050896117fa565b600019166000191681526020019081526020016000209250600091505b82805490508210156114a157600460006112fd858581548110151561129857fe5b9060005260206000200160009054906101000a900473ffffffffffffffffffffffffffffffffffffffff168a8a8a8080601f016020809104026020016040519081016040528093929190818152602001838380828437820191505050505050896117fa565b6000191660001916815260200190815260200160002090508060000160009054906101000a900460ff16801561134257508060000160019054906101000a900460ff16155b156114945760018160000160016101000a81548160ff021916908315150217905550611418611392600f611384600a856001015461196390919063ffffffff16565b61197990919063ffffffff16565b6003600086868154811015156113a457fe5b9060005260206000200160009054906101000a900473ffffffffffffffffffffffffffffffffffffffff1673ffffffffffffffffffffffffffffffffffffffff1673ffffffffffffffffffffffffffffffffffffffff168152602001908152602001600020546119b190919063ffffffff16565b60036000858581548110151561142a57fe5b9060005260206000200160009054906101000a900473ffffffffffffffffffffffffffffffffffffffff1673ffffffffffffffffffffffffffffffffffffffff1673ffffffffffffffffffffffffffffffffffffffff168152602001908152602001600020819055505b8180600101925050611277565b50505050505050565b60008060149054906101000a900460ff16905090565b60008060149054906101000a900460ff16151561156b576040517f08c379a00000000000000000000000000000000000000000000000000000000081526004018080602001828103825260258152602001807f436f6e74726163742069732063757272656e746c79206e6f74206f706572617481526020017f696f6e616c00000000000000000000000000000000000000000000000000000081525060400191505060405180910390fd5b6000809054906101000a900473ffffffffffffffffffffffffffffffffffffffff1673ffffffffffffffffffffffffffffffffffffffff163373ffffffffffffffffffffffffffffffffffffffff161480611604575060018060003373ffffffffffffffffffffffffffffffffffffffff1673ffffffffffffffffffffffffffffffffffffffff16815260200190815260200160002054145b1515611678576040517f08c379a00000000000000000000000000000000000000000000000000000000081526004018080602001828103825260168152602001807f43616c6c6572206e6f7420617574686f72697a6564210000000000000000000081525060200191505060405180910390fd5b868686868080601f016020809104026020016040519081016040528093929190818152602001838380828437820191505050505050856116ba84848484610a6c565b15151561172f576040517f08c379a000000000000000000000000000000000000000000000000000000000815260040180806020018281038252601c8152602001807f50617373656e67657220697320616c726561647920696e73757265640000000081525060200191505060405180910390fd5b600460006117718d8d8d8d8080601f0160208091040260200160405190810160405280939291908181526020018383808284378201915050505050508c6117fa565b60001916600019168152602001908152602001600020945060018560000160006101000a81548160ff0219169083151502179055508585600101819055506117ed8b8b8b8b8080601f0160208091040260200160405190810160405280939291908181526020018383808284378201915050505050508a6119cd565b5050505050505050505050565b600084848484604051602001808573ffffffffffffffffffffffffffffffffffffffff1673ffffffffffffffffffffffffffffffffffffffff166c010000000000000000000000000281526014018473ffffffffffffffffffffffffffffffffffffffff1673ffffffffffffffffffffffffffffffffffffffff166c0100000000000000000000000002815260140183805190602001908083835b6020831015156118ba5780518252602082019150602081019050602083039250611895565b6001836020036101000a0380198251168184511680821785525050505050509050018281526020019450505050506040516020818303038152906040526040518082805190602001908083835b60208310151561192c5780518252602082019150602081019050602083039250611907565b6001836020036101000a03801982511681845116808217855250505050505090500191505060405180910390209050949350505050565b6000818381151561197057fe5b04905092915050565b60008083141561198c57600090506119ab565b818302905081838281151561199d57fe5b041415156119a757fe5b8090505b92915050565b600081830190508281101515156119c457fe5b80905092915050565b60008060008060149054906101000a900460ff161515611a7b576040517f08c379a00000000000000000000000000000000000000000000000000000000081526004018080602001828103825260258152602001807f436f6e74726163742069732063757272656e746c79206e6f74206f706572617481526020017f696f6e616c00000000000000000000000000000000000000000000000000000081525060400191505060405180910390fd5b60056000611a8c60008989896117fa565b60001916600019168152602001908152602001600020925060009150600090505b8280549050811015611b52578673ffffffffffffffffffffffffffffffffffffffff168382815481101515611ade57fe5b9060005260206000200160009054906101000a900473ffffffffffffffffffffffffffffffffffffffff1673ffffffffffffffffffffffffffffffffffffffff161415611b45576001600660006101000a81548160ff021916908315150217905550611b52565b8080600101915050611aad565b811515611bbf57828790806001815401808255809150509060018203906000526020600020016000909192909190916101000a81548173ffffffffffffffffffffffffffffffffffffffff021916908373ffffffffffffffffffffffffffffffffffffffff160217905550505b505050505050505600a165627a7a723058209a7582a93563e583c0e40018f09f376d5d4c9ed3f87e0a06704e0ba686ea7b480029",
  "source": "pragma solidity ^0.4.25;\n\nimport \"../node_modules/openzeppelin-solidity/contracts/math/SafeMath.sol\";\n\ncontract FlightSuretyData {\n    using SafeMath for uint256;\n\n    /********************************************************************************************/\n    /*                                       DATA VARIABLES                                     */\n    /********************************************************************************************/\n\n    address private contractOwner;                                      // Account used to deploy contract\n    bool private operational = true;                                    // Blocks all state changes throughout the contract if false\n\n    mapping(address => uint256) private authorizedCaller;      //Store's authorized callers\n\n    struct Airline {\n        bool isRegistered;\n        bool isFunded;\n    }\n    mapping(address => Airline) private airlines;\n\n    struct FlightInsurance {\n        bool isInsured;\n        bool isCredited;\n        uint256 amount;\n    }\n\n      mapping(address => uint256) private insureeBalances;\n\n    mapping(bytes32 => FlightInsurance) private flightInsurances;\n\n    mapping(bytes32 => address[]) private insureesMap;\n\n    bool private  duplicateIns = false; \n\n\n    /********************************************************************************************/\n    /*                                       EVENT DEFINITIONS                                  */\n    /********************************************************************************************/\n\n\n    /**\n    * @dev Constructor\n    *      The deploying account becomes contractOwner\n    */\n    constructor\n                                (\n                                    address firstAirline\n                                ) \n                                public \n    {\n        contractOwner = msg.sender;\n\n        airlines[firstAirline].isRegistered = true;\n        airlines[firstAirline].isFunded = false;\n    }\n\n    /********************************************************************************************/\n    /*                                       FUNCTION MODIFIERS                                 */\n    /********************************************************************************************/\n\n    // Modifiers help avoid duplication of code. They are typically used to validate something\n    // before a function is allowed to be executed.\n\n    /**\n    * @dev Modifier that requires the \"operational\" boolean variable to be \"true\"\n    *      This is used on all state changing functions to pause the contract in \n    *      the event there is an issue that needs to be fixed\n    */\n    modifier requireIsOperational() \n    {\n        require(operational, \"Contract is currently not operational\");\n        _;  // All modifiers require an \"_\" which indicates where the function body will be added\n    }\n\n    /**\n    * @dev Modifier that requires the \"ContractOwner\" account to be the function caller\n    */\n    modifier requireContractOwner()\n    {\n        require(msg.sender == contractOwner, \"Caller is not contract owner\");\n        _;\n    }\n\n\n    modifier requireIsCallerAuthorized()\n    {\n        require(msg.sender == contractOwner || authorizedCaller[msg.sender] == 1, \"Caller not authorized!\");\n        _;\n    }\n\n    modifier requireIsCallerAirlineFunded(address callingAirline)\n    {\n        require(airlines[callingAirline].isFunded, \"Airline cannot participate in contract if not funded.\");\n        _;\n    }\n\n    modifier requireFlightNotInsured(address sender, address airline, string flightCode, uint256 timestamp)\n    {\n        require(!isFlightInsured(sender, airline, flightCode, timestamp), \"Passenger is already insured\");\n        _;\n    }\n\n\n    /********************************************************************************************/\n    /*                                       UTILITY FUNCTIONS                                  */\n    /********************************************************************************************/\n\n    /**\n    * @dev Get operating status of contract\n    *\n    * @return A bool that is the current operating status\n    */      \n    function isOperational() \n                            public \n                            view \n                            returns(bool) \n    {\n        return operational;\n    }\n\n\n    /**\n    * @dev Sets contract operations on/off\n    *\n    * When operational mode is disabled, all write transactions except for this one will fail\n    */    \n    function setOperatingStatus\n                            (\n                                bool mode\n                            ) \n                            external\n                            requireContractOwner \n    {\n        operational = mode;\n    }\n\n\n    function authorizeCaller(address contractAddress) external\n    requireContractOwner\n    {\n        authorizedCaller[contractAddress] = 1;\n    }\n\n\n    function isFlightInsured(address sender, address airline, string flightCode, uint256 timestamp) public view\n    returns (bool)\n    {\n        FlightInsurance storage insurance = flightInsurances[getFlightKey(sender, airline, flightCode, timestamp)];\n        return insurance.isInsured;\n    }\n\n\n    /********************************************************************************************/\n    /*                                     SMART CONTRACT FUNCTIONS                             */\n    /********************************************************************************************/\n\n   /**\n    * @dev Add an airline to the registration queue\n    *      Can only be called from FlightSuretyApp contract\n    *\n    */   \n    function registerAirline\n                            (   address InAirline, \n                                address N_airline\n                            )\n                            external\n                            requireIsOperational\n                            requireIsCallerAuthorized\n                            requireIsCallerAirlineFunded(InAirline)\n                            returns (bool status)\n    {\n        require(!airlines[N_airline].isRegistered, \"Airline  has been already registered.\");\n        airlines[N_airline].isRegistered = true;\n        airlines[N_airline].isFunded = false;\n\n        return airlines[N_airline].isRegistered;\n    }\n\n\n   /**\n    * @dev Buy insurance for a flight\n    *\n    */   \n    function buy\n                            (    \n                                address sender,\n                                address airline,\n                                string flightCode,\n                                uint256 timestamp,\n                                uint256 insuranceAmount                         \n                            )\n                            external\n                            requireIsOperational\n                            requireIsCallerAuthorized\n                            requireFlightNotInsured(sender, airline, flightCode, timestamp)\n    {\n        FlightInsurance storage flInsurance = flightInsurances[getFlightKey(sender, airline, flightCode, timestamp)];\n        flInsurance.isInsured = true;\n        flInsurance.amount = insuranceAmount;\n        saveInsuree(sender, airline, flightCode, timestamp);\n\n    }\n\n    // Saving Insurance --- CHANGE THIS \n    function saveInsuree(address sender, address airline, string flightCode, uint256 timestamp) internal requireIsOperational {\n        address [] storage insurees = insureesMap[getFlightKey(address(0), airline, flightCode, timestamp)];\n        bool insureeExists = false;\n        for(uint256 i = 0; i < insurees.length; i++) {\n            if(insurees[i] == sender) {\n                duplicateIns= true;\n                break;\n            }\n        }\n\n        if(!insureeExists) {\n            insurees.push(sender);\n        }\n    }\n\n\n\n    /**\n     *  @dev Credits payouts to insurees\n    */\n    function creditInsurees\n    (\n    address airline,\n    string flightCode,\n    uint256 timestamp\n    )\n    external\n    requireIsOperational\n    requireIsCallerAuthorized\n    {\n        address [] storage insurees = insureesMap[getFlightKey(address(0), airline, flightCode, timestamp)];\n\n        for(uint i = 0; i < insurees.length; i++) {\n            FlightInsurance storage insurance = flightInsurances[getFlightKey(insurees[i], airline, flightCode, timestamp)];\n            if(insurance.isInsured && !insurance.isCredited) {\n                insurance.isCredited = true;\n                insureeBalances[insurees[i]] = insureeBalances[insurees[i]].add(insurance.amount.div(10).mul(15));\n            }\n        }\n    }\n    \n\n    /**\n     *  @dev Transfers eligible payout funds to insuree\n     *\n    */\n    function pay\n                            (address sender\n                            )\n                            external\n                            requireIsOperational \n                            requireIsCallerAuthorized\n    {\n        //Fail fast \n        require(address(this).balance >= insureeBalances[sender], \"Error: There is no funds in contract\");\n        uint256 tmp = insureeBalances[sender];\n        insureeBalances[sender] = 0;\n        sender.transfer(tmp);\n\n    }\n\n\n\n   /**\n    * @dev Initial funding for the insurance. Unless there are too many delayed flights\n    *      resulting in insurance payouts, the contract should be self-sustaining\n    *\n    */   \n    function fund\n                            (   address airlineAddress\n                            )\n                            public\n                            payable\n                            requireIsOperational\n                            requireIsCallerAuthorized\n    {\n\n            airlines[airlineAddress].isFunded = true;\n    }\n\n    function getFlightKey\n                        (\n                            address sender, \n                            address airline,\n                            string memory flight,\n                            uint256 timestamp\n                        )\n                        pure\n                        internal\n                        returns(bytes32) \n    {\n        return keccak256(abi.encodePacked(sender,airline, flight, timestamp));\n    }\n\n    /**\n    * @dev Fallback function for funding smart contract.\n    *\n    */\n    function() \n                            external \n                            payable \n    {\n        fund(msg.sender);\n    }\n\n\n}\n\n",
  "sourcePath": "/home/BlobkChain/FlightSurety/contracts/FlightSuretyData.sol",
  "compiler": {
    "name": "solc",
    "version": "0.4.26+commit.4563c3fc.Emscripten.clang"
  },
  "schemaVersion": "3.4.14",
  "updatedAt": "2023-07-17T00:07:35.723Z",
  "devdoc": {
    "methods": {
      "buy(address,address,string,uint256,uint256)": {
        "details": "Buy insurance for a flight    "
      },
      "creditInsurees(address,string,uint256)": {
        "details": "Credits payouts to insurees"
      },
      "fund(address)": {
        "details": "Initial funding for the insurance. Unless there are too many delayed flights     resulting in insurance payouts, the contract should be self-sustaining    "
      },
      "isOperational()": {
        "details": "Get operating status of contract",
        "return": "A bool that is the current operating status"
      },
      "pay(address)": {
        "details": "Transfers eligible payout funds to insuree    "
      },
      "registerAirline(address,address)": {
        "details": "Add an airline to the registration queue     Can only be called from FlightSuretyApp contract    "
      },
      "setOperatingStatus(bool)": {
        "details": "Sets contract operations on/off    * When operational mode is disabled, all write transactions except for this one will fail"
      }
    }
  },
  "userdoc": {
    "methods": {}
  }
}